{
  "contractName": "EthSriSwap",
  "abi": [
    {
      "inputs": [
        {
          "internalType": "address",
          "name": "_address",
          "type": "address"
        }
      ],
      "payable": false,
      "stateMutability": "nonpayable",
      "type": "constructor"
    },
    {
      "anonymous": false,
      "inputs": [
        {
          "indexed": false,
          "internalType": "address",
          "name": "receiver",
          "type": "address"
        },
        {
          "indexed": false,
          "internalType": "uint256",
          "name": "value",
          "type": "uint256"
        }
      ],
      "name": "BuyTokensEvent",
      "type": "event"
    },
    {
      "constant": true,
      "inputs": [],
      "name": "name",
      "outputs": [
        {
          "internalType": "string",
          "name": "",
          "type": "string"
        }
      ],
      "payable": false,
      "stateMutability": "view",
      "type": "function"
    },
    {
      "constant": true,
      "inputs": [],
      "name": "token",
      "outputs": [
        {
          "internalType": "contract SriToken",
          "name": "",
          "type": "address"
        }
      ],
      "payable": false,
      "stateMutability": "view",
      "type": "function"
    },
    {
      "constant": false,
      "inputs": [],
      "name": "buyTokens",
      "outputs": [],
      "payable": true,
      "stateMutability": "payable",
      "type": "function"
    },
    {
      "constant": false,
      "inputs": [
        {
          "internalType": "uint256",
          "name": "sriTokens",
          "type": "uint256"
        }
      ],
      "name": "sellTokens",
      "outputs": [],
      "payable": false,
      "stateMutability": "nonpayable",
      "type": "function"
    }
  ],
  "bytecode": "0x60806040526040518060400160405280600c81526020017f45746820537269205377617000000000000000000000000000000000000000008152506000908051906020019061004f9291906100d7565b5034801561005c57600080fd5b506040516109ed3803806109ed8339818101604052602081101561007f57600080fd5b810190808051906020019092919050505080600160006101000a81548173ffffffffffffffffffffffffffffffffffffffff021916908373ffffffffffffffffffffffffffffffffffffffff1602179055505061017c565b828054600181600116156101000203166002900490600052602060002090601f016020900481019282601f1061011857805160ff1916838001178555610146565b82800160010185558215610146579182015b8281111561014557825182559160200191906001019061012a565b5b5090506101539190610157565b5090565b61017991905b8082111561017557600081600090555060010161015d565b5090565b90565b6108628061018b6000396000f3fe60806040526004361061003f5760003560e01c806306fdde03146100445780636c11bcd3146100d4578063d0febe4c1461010f578063fc0c546a14610119575b600080fd5b34801561005057600080fd5b50610059610170565b6040518080602001828103825283818151815260200191508051906020019080838360005b8381101561009957808201518184015260208101905061007e565b50505050905090810190601f1680156100c65780820380516001836020036101000a031916815260200191505b509250505060405180910390f35b3480156100e057600080fd5b5061010d600480360360208110156100f757600080fd5b810190808035906020019092919050505061020e565b005b61011761055d565b005b34801561012557600080fd5b5061012e610807565b604051808273ffffffffffffffffffffffffffffffffffffffff1673ffffffffffffffffffffffffffffffffffffffff16815260200191505060405180910390f35b60008054600181600116156101000203166002900480601f0160208091040260200160405190810160405280929190818152602001828054600181600116156101000203166002900480156102065780601f106101db57610100808354040283529160200191610206565b820191906000526020600020905b8154815290600101906020018083116101e957829003601f168201915b505050505081565b80600160009054906101000a900473ffffffffffffffffffffffffffffffffffffffff1673ffffffffffffffffffffffffffffffffffffffff166370a08231336040518263ffffffff1660e01b8152600401808273ffffffffffffffffffffffffffffffffffffffff1673ffffffffffffffffffffffffffffffffffffffff16815260200191505060206040518083038186803b1580156102ae57600080fd5b505afa1580156102c2573d6000803e3d6000fd5b505050506040513d60208110156102d857600080fd5b8101908080519060200190929190505050101561035d576040517f08c379a000000000000000000000000000000000000000000000000000000000815260040180806020018281038252600f8152602001807f4e6f20656e6f7567682066756e6473000000000000000000000000000000000081525060200191505060405180910390fd5b60006064828161036957fe5b049050803073ffffffffffffffffffffffffffffffffffffffff163110156103f9576040517f08c379a00000000000000000000000000000000000000000000000000000000081526004018080602001828103825260168152602001807f436f6e74726163742068617665206e6f2066756e64730000000000000000000081525060200191505060405180910390fd5b600160009054906101000a900473ffffffffffffffffffffffffffffffffffffffff1673ffffffffffffffffffffffffffffffffffffffff166323b872dd3330856040518463ffffffff1660e01b8152600401808473ffffffffffffffffffffffffffffffffffffffff1673ffffffffffffffffffffffffffffffffffffffff1681526020018373ffffffffffffffffffffffffffffffffffffffff1673ffffffffffffffffffffffffffffffffffffffff1681526020018281526020019350505050602060405180830381600087803b1580156104d657600080fd5b505af11580156104ea573d6000803e3d6000fd5b505050506040513d602081101561050057600080fd5b8101908080519060200190929190505050503373ffffffffffffffffffffffffffffffffffffffff166108fc829081150290604051600060405180830381858888f19350505050158015610558573d6000803e3d6000fd5b505050565b6000346064029050600160009054906101000a900473ffffffffffffffffffffffffffffffffffffffff1673ffffffffffffffffffffffffffffffffffffffff166370a08231306040518263ffffffff1660e01b8152600401808273ffffffffffffffffffffffffffffffffffffffff1673ffffffffffffffffffffffffffffffffffffffff16815260200191505060206040518083038186803b15801561060457600080fd5b505afa158015610618573d6000803e3d6000fd5b505050506040513d602081101561062e57600080fd5b81019080805190602001909291905050508111156106b4576040517f08c379a000000000000000000000000000000000000000000000000000000000815260040180806020018281038252600f8152602001807f4e6f20656e6f7567682066756e6473000000000000000000000000000000000081525060200191505060405180910390fd5b600160009054906101000a900473ffffffffffffffffffffffffffffffffffffffff1673ffffffffffffffffffffffffffffffffffffffff1663a9059cbb33836040518363ffffffff1660e01b8152600401808373ffffffffffffffffffffffffffffffffffffffff1673ffffffffffffffffffffffffffffffffffffffff16815260200182815260200192505050602060405180830381600087803b15801561075d57600080fd5b505af1158015610771573d6000803e3d6000fd5b505050506040513d602081101561078757600080fd5b8101908080519060200190929190505050507f4600f6744d30d0aed98eb303157eefccc70f9e00158f7a23a953ae9d149624fc3382604051808373ffffffffffffffffffffffffffffffffffffffff1673ffffffffffffffffffffffffffffffffffffffff1681526020018281526020019250505060405180910390a150565b600160009054906101000a900473ffffffffffffffffffffffffffffffffffffffff168156fea265627a7a7231582067ba419c63907bde0f7a1ff24d7132aeb123967791efc011f1cf6042e42d4cf964736f6c63430005100032",
  "source": "pragma solidity >=0.4.21 <0.6.0;\n\nimport \"./SriToken.sol\";\n\ncontract EthSriSwap {\n    string public name = \"Eth Sri Swap\";\n    SriToken public token;\n\n    event BuyTokensEvent(address receiver, uint value);\n\n    constructor(address _address) public {\n        token = SriToken(_address);\n    }\n\n    function buyTokens() public payable {\n        uint value = 100 * msg.value; // no of sri tokens\n\n        require(value <= token.balanceOf(address(this)), \"No enough funds\");\n\n        token.transfer(msg.sender, value);\n\n        emit BuyTokensEvent(msg.sender, value);\n    }\n\n    function sellTokens(uint sriTokens) public {\n        require(token.balanceOf(msg.sender) >= sriTokens, \"No enough funds\");\n\n        uint noOfEther = sriTokens / 100; // no of ether tokens\n\n        require(address(this).balance >= noOfEther, \"Contract have no funds\");\n\n        token.transferFrom(msg.sender, address(this), sriTokens);\n\n        msg.sender.transfer(noOfEther);\n    }\n}\n",
  "sourcePath": "/Users/subbu/workspace/srinivas-work/learn/eth-sri-swap/src/contracts/EthSriSwap.sol",
  "compiler": {
    "name": "solc",
    "version": "0.5.16+commit.9c3226ce.Emscripten.clang"
  },
  "schemaVersion": "3.4.4",
  "updatedAt": "2023-11-25T08:54:22.901Z",
  "networkType": "ethereum",
  "devdoc": {
    "methods": {}
  },
  "userdoc": {
    "methods": {}
  }
}